:1000000010C01FC0E5C01DC01CC01BC01AC019C055
:1000100018C017C016C01FC114C04BC012C011C0F9
:1000200010C011241FBECFE5D1E0DEBFCDBF20E060
:10003000A0E6B0E001C01D92AE3CB207E1F772D37A
:1000400058C4DECFFC019C01205E3F4F6193719349
:10005000E217F307D9F7FC0112A284E0660F771FBD
:100060008A95E1F771A360A30895FB01480FE19918
:10007000FECF21E0280F90E09FBB8EBBE09A8DB3AE
:100080008193241711F0822FF2CF0895FB01480FBE
:10009000E199FECF1CBA21E0280F90E09FBB8EBBF8
:1000A00081918DBBE29AE19A241711F0822FF0CF53
:1000B00008951F920F920FB60F9211242F933F9322
:1000C0004F935F936F937F938F939F93AF93BF9360
:1000D000EF93FF9344B155B15370A5EAB0E0909609
:1000E0002D913C91919792968C919297E82FF0E008
:1000F000240F351FEE0FFF1FEB55FF4F60817181FD
:10010000261B370B91963C932E93909751834083F7
:100110008F5F8F7092968C93929790964D915C9191
:10012000919780919B0090919C00A0919D00B0912F
:100130009E002091990030919A00840F951FA11D77
:10014000B11D821B930BA109B10980939B00909371
:100150009C00A0939D00B0939E0080919B00909185
:100160009C00A0919D00B0919E002CE0B695A795B3
:10017000979587952A95D1F790939A008093990047
:10018000FF91EF91BF91AF919F918F917F916F916F
:100190005F914F913F912F910F900FBE0F901F9045
:1001A000189522B708B600FE0AC022B78091A300B6
:1001B0009091A4000196982F8827822B0895809112
:1001C000A3009091A400F7CFF894EBDF7894089502
:1001D0001F920F920FB60F9211241F932F933F93EC
:1001E0004F935F936F937F938F939F93AF93BF933F
:1001F000CF93DF93EF93FF9310916D001431B8F418
:10020000C12FD0E089B390E034E0959587953A9579
:10021000E1F78C279D2780FF0AC0C3DFCC0FDD1FCD
:10022000C259DF4F998388831F5F10936D00FF9140
:10023000EF91DF91CF91BF91AF919F918F917F917E
:100240006F915F914F913F912F911F910F900FBE32
:100250000F901F9018951F920F920FB60F921124B6
:100260008F939F938091A3009091A4000196909307
:10027000A4008093A3009F918F910F900FBE0F90C9
:100280001F901895F8942091A3003091A4007894C1
:100290008091A1009091A200281B390B2638314093
:1002A00038F0A8958A579E4F9093A2008093A100A2
:1002B00008950F931F93CF93DF93EC01F89400916F
:1002C000A3001091A4007894DDDFF8948091A3003E
:1002D0009091A4007894801B910B8C179D07A0F33C
:1002E000DF91CF911F910F910895DF980895A0E0BD
:1002F000B0E0BC01CD012EE0660F771F881F991F6B
:100300002A95D1F72CE434E040E050E0D0D230938D
:100310009700209396000895CF93C82FE6DF80EDD5
:1003200093E0C7DFCC2351F0DF9A80ED93E0C1DF8B
:10033000DCDF80ED93E0BDDFC150F4CFCF910895B5
:10034000E8ECF0E02281338180819181822793273C
:1003500022EA822726E592279583848346E0BF011F
:1003600080E094DE81E080939800089580916A0097
:10037000893609F441C0833821F0813409F05AC02C
:100380001DC080916900823008F456C080916B00D6
:10039000833809F04FC08091C8009091C9008E7FCA
:1003A0009093C9008093C80087EF92E090939700E4
:1003B00080939600C5DF85E0AFDF3CC08091690087
:1003C0008230D0F180916B008134A1F58FEF9FEFE7
:1003D0009093CD008093CC009093CB008093CA0083
:1003E0009093C9008093C80046E068EC70E080E01C
:1003F0004DDEA6DF81E0E0CF809169008330E0F040
:1004000080916B0090916C0098279F3F99F4209108
:10041000C8003091C90021603093C9002093C80002
:1004200090E001969093CB008093CA0060DF88DF54
:1004300084E0C2CF1092690008950F931F93CF9369
:10044000C0916D00C1DE20916800213009F138F0C3
:10045000223009F47EC0233009F4D5C01CC1C2305B
:1004600008F419C1809170009091710020916E0084
:1004700030916F00821B930B90936700809366000E
:10048000815093408431924008F052C081E051C0C5
:10049000209170003091710000916600109167000A
:1004A000AC01421B530B9A01C8016DE070E0EED124
:1004B000969587958217930708F0EDC0C80163E011
:1004C00070E0E4D19C013695279582E08093650029
:1004D0001092640085E090E0E2E0EC1728F0990FBC
:1004E000E0FF15C0916013C0AE2FB0E0AA0FBB1F94
:1004F000A259BF4F4D915C91609170007091710055
:10050000461B570B4217530708F48DC0E8CF200F46
:10051000311F815011F7E093650090936400892F9B
:1005200090E09C01359527958227932780FD04C094
:1005300083E080936800AFC0F0E0EE0FFF1FE45946
:10054000FF4F80819181909363008093620082E0ED
:10055000F0CFA0916200B09163000091660010910D
:1005600067009C012A1B3B0BC8016DE070E08ED137
:10057000969587958217930708F08DC0C80163E0B0
:1005800070E084D1AC01569547952091650085E0D7
:1005900090E02C1728F0990F20FF11C091600FC038
:1005A000E22FF0E0EE0FFF1FE259FF4F60817181F3
:1005B0006A1B7B0B6417750708F450C0ECCF400F23
:1005C000511F815031F720936500892F90E09C01E5
:1005D000359527958227932780FFAACF10926D002B
:1005E000E091690081E08E0F80936900F0E0E659A8
:1005F000FF4F80916400880F880F880F807F822BC7
:100600008083B4DE0DC0CC993EC0C1113CC02091A6
:10061000600030916100821B930B883A9146D8F1BB
:100620001092680038C0EF5FEC1708F058CFAE2F7B
:10063000B0E0AA0FBB1FA259BF4F4D915C916091D2
:10064000700070917100461B570B4217530708F05A
:1006500046CFE0936500909364006ACF2F5F2C171C
:1006600008F099CFE22FF0E0EE0FFF1FE259FF4FA5
:10067000608171816A1B7B0B6417750708F08BCF53
:100680002093650055CF9093610080936000109295
:100690006D0010926900CF911F910F910895CF9333
:1006A00017B887E290E005DEF8948091C50090913C
:1006B000C6007894813625E3920710F089E004C0E3
:1006C00080319D4120F48AE027DE81E029C081E469
:1006D00087B987E290E0EDDDF8948091C5009091B4
:1006E000C6007894813921E2920770F480379E41E8
:1006F00070F080919800882369F08091C800C0E074
:1007000080FD0BC082E00AC0C1E087E007C0C1E005
:1007100086E004C0C0E081E001C083E0FDDD8C2FF5
:10072000CF910895F89460E072E085EA90E08ADC69
:1007300083E081B98CE58BBB87E088BB80EA8ABB0C
:100740009DE088E10FB6F894A89581BD0FBE91BDDC
:1007500017B813B88DEB86B910BE82E083BF89B796
:10076000816089BF7894369A86EC9DE2A2DD46E0EE
:1007700068EC70E080E079DC2091CA003091CB0019
:100780008091C8009091C900822793272091CC00C6
:100790003091CD008227932721E0823A964509F0D7
:1007A00020E0209398007BDF8111DECF80919800BC
:1007B000882349F08091C80080FF05C08091CA005D
:1007C0009091CB0002C083E390E091DDF89480919A
:1007D0009800882321F080E18ABF8BBF82BB809183
:1007E000C5009091C60090939A00809399008091E3
:1007F000990090919A00A0E0B0E02CE0880F991F3A
:10080000AA1FBB1F2A95D1F780939B0090939C0051
:10081000A0939D00B0939E007894F8946091990005
:1008200070919A004091C5005091C6008091A3003C
:100830009091A40078942091960030919700260F13
:10084000371F4217530738F0DD9ADF9A9093A000C4
:1008500080939F000BC020919F003091A000821BCD
:10086000930B8738914010F0DD983FDDE6DD0ADD1F
:10087000809198008111D1CFCC99CFCF1092C9002F
:100880001092C8005DDD82E047DDC7CF0024552708
:1008900004C0080E591F880F991F009729F07695FC
:1008A0006795B8F37105B9F7802D952F0895A1E2EA
:1008B0001A2EAA1BBB1BFD010DC0AA1FBB1FEE1FDA
:1008C000FF1FA217B307E407F50720F0A21BB30B25
:1008D000E40BF50B661F771F881F991F1A9469F7A1
:1008E00060957095809590959B01AC01BD01CF01FD
:0608F0000895F894FFCF0B
:00000001FF
